:020000040800F2
:10000000A020002029010008DD220008DF220008CE
:100010003501000837010008390100080000000020
:10002000000000000000000000000000E3220008C3
:100030003D01000800000000E5220008E72200085A
:100040004301000843010008430100084301000880
:100050004301000843010008430100084301000870
:100060004301000843010008430100084301000860
:100070004301000843010008430100084301000850
:100080004301000843010008430100084301000840
:100090004301000843010008430100084301000830
:1000A0004301000843010008430100084301000820
:1000B0004301000843010008430100084301000810
:1000C0004301000843010008430100084301000800
:1000D00055270008430100084301000843010008B8
:1000E00043010008430100084301000843010008E0
:1000F00043010008430100084301000843010008D0
:1001000043010008430100084301000843010008BF
:1001100043010008DFF80CD002F0A2FC00480047C1
:100120005D220008A02000200648804706480047BE
:10013000FEE7FEE7FEE7FEE7FEE7FEE7FEE7FEE797
:10014000FEE7FEE7C3020008150100082DE9F843A9
:10015000AF4C002000900027AE48006820F08000DF
:10016000AC4908600846006840F0400008606946F5
:10017000A948A0470098C0B2052819D86946A748E1
:10018000A04700984FEA1068009800F47F00050A25
:10019000009800F47F40060248EA050030430090D2
:1001A0009F48006800F07F47009807439C4807601D
:1001B0009848006840F0800096490860BDE8F883E0
:1001C0001FB500200290019000909648006840F40E
:1001D00080309449086000BF92480068C0F34040F6
:1001E00001900098401C00909DF8040018B90098F8
:1001F000B0F5005FF0D18B480068C0F3404001903B
:100200009DF8040018B98848884908601FBD8148D6
:10021000006820F007007F4908600846006840F049
:10022000030008607F4840687E494860084640688F
:1002300040F4005048600846406840F4A0604860C0
:10024000FFF784FF7748406879490840754948605E
:100250000846006C20F001000864084640680390DE
:10026000039840F480300390039840F400300390EA
:1002700070490398084303906A49039848600298BC
:1002800008640846006840F08070086000BF654858
:10029000006800F000700028F9D06248406820F043
:1002A0000300604948600846406840F0020048602A
:1002B00000BF5C48406800F00C000828F9D100BF7E
:1002C000A4E710B55C48006840F470005A49086023
:1002D0005448006840F001005249086008464068F0
:1002E000564908404F49486008460068544908404C
:1002F0004C4908600846006820F4802008600846E1
:1003000040684B490840474948604FF46050C86214
:100310000846006C40F0010008644A4888600846BE
:10032000C06940F08050C8610846C06920F0805024
:10033000C8613848006840F08000364908600846C7
:10034000006820F010000860FFF73AFF4FF00060EF
:1003500039498039086010BD10B500210020002205
:10036000304B5B6803F00C0121B1042906D0082949
:100370003CD107E02C4B2D4C23603BE02A4B2B4C0F
:10038000236037E0274B5B682A4C03EA0400254BC7
:100390005B6803F4803200F000631BB9022303EBB7
:1003A000904004E04FF4F873C3EB9043581C72B9CB
:1003B0001C4B1B6C03F0010323B1234B43431B4C29
:1003C000236012E0184B4343184C23600DE0154B9B
:1003D0005B6803F4003323B11B4B4343134C23608E
:1003E00003E0114B4343114C236003E00E4B0F4CD1
:1003F000236000BF00BF0B4B5B68C3F30313134CB8
:10040000E15C0A4B1B68CB40084C236010BD000028
:10041000A502FF1F0020024020F0FF1F30F2FF1F47
:10042000041800400010024000127A000000002072
:10043000FFFFC0F700003C0888ED00E00CC07FF82B
:10044000FFFFF6FE00009F0400093D00A22A0008FD
:1004500030490143304A1160704770B500210023D4
:100460000F22C47804B32C4C246804F4E064C4F56F
:10047000E064210AC1F10403CA40447804FA03F19C
:100480008478144021430901244C0678A15504784E
:1004900004F01F050124AC4005786D11AD0005F195
:1004A000E025C5F8004109E0047804F01F050124A7
:1004B000AC401B4D0678761145F8264070BD194AB0
:1004C0000A400243144B1B1F1A6070471249091D52
:1004D00009680143104A121D116070470E49091D39
:1004E000096881430C4A121D11607047042808D125
:1004F0004FF0E021096941F004014FF0E022116161
:1005000007E04FF0E021096921F004014FF0E022FB
:10051000116170470000FA050CED00E000E400E016
:1005200080E100E080FFFF1F016821F00101016010
:100530000021016041608160C1608C49884208D11E
:100540008A490839496841F00F01884A083A5160E0
:1005500059E086491431884208D1844908394968EC
:1005600041F0F001814A083A51604CE07F4928315E
:10057000884208D17D490839496841F470617B4A55
:10058000083A51603FE079493C31884208D17749C7
:100590000839496841F47041744A083A516032E0C0
:1005A00072495031884208D170490839496841F48C
:1005B00070216E4A083A516025E06C4964318842E6
:1005C00008D16A490839496841F47001674A083A14
:1005D000516018E065497831884208D1634908398B
:1005E000496841F07061614A083A51600BE05F4927
:1005F0008C31884207D15D490839496841F0704122
:100600005A4A083A51607047026822F480420260F8
:1006100002680A4302607047026822F44052026096
:1006200002680A4302607047026822F020020260FA
:1006300002680A4302607047026822F44062026066
:1006400002680A4302607047026822F44072026046
:1006500002680A4302607047026822F0800202606A
:1006600002680A4302607047026822F0400202609A
:1006700002680A430260704741607047026822F0D6
:100680001002026002680A4302607047C16070474E
:100690008160704710B504460B4620461968FFF785
:1006A000F7FF20465968FFF7F1FF20469968FFF7EA
:1006B000E5FF2046D968FFF7DFFF20461969FFF7FD
:1006C000D3FF20465969FFF7C7FF20469969FFF716
:1006D000BBFF2046D969FFF7AFFF2046196AFFF735
:1006E000A3FF2046596AFFF797FF2046996AFFF754
:1006F0008BFF10BD0021016041608160C16001611C
:1007000041618161C161016241628162704701683A
:1007100041F0010101607047016821F001010160B1
:10072000704702680A430260704702688A430260A9
:100730007047416070470146486880B27047024682
:100740001068084008B9002070470120FCE74160AC
:10075000704702461068084008B900207047012021
:10076000FCE74160704701617047000008000240EB
:1007700010B50446EF48844204D14FF4804000F0A5
:10078000F6FC16E0EC48844204D14FF4003000F04F
:10079000F8FC0EE0E948844204D14FF4003000F048
:1007A000E6FC06E0E648844203D14FF4802000F0E6
:1007B000DEFC10BD0A460021818A21F440711143FC
:1007C000818270470A460021818921F00C01114382
:1007D000818170470A460021818921F4C06111435B
:1007E000818170470A460021018A21F4405111435A
:1007F000018270470A460021818921F4805111430A
:10080000818170472DE9F04786B00446894600BFD4
:100810004FF0000A00BF00BFD046A046684600F077
:10082000F4F9C448804505D0C448804502D0C44886
:10083000804502D1DDF80CA001E0DDF808A00AEB4C
:10084000CA0000EB0A104FEA8901B0FBF1F6642000
:10085000B6FBF0F005012809642101FB1067322086
:1008600000EB0710B0FBF1F000F00F00054325810D
:1008700006B0BDE8F08770B505460C4628462168ED
:10088000FFF7C0FFA1882846FFF7B4FFE18828469C
:10089000FFF7A8FF21892846FFF79CFF61892846BA
:1008A000FFF790FFA1892846FFF784FF70BD4FF442
:1008B0001651016000218180C18001810C2141819C
:1008C0000021818170470A460021018A21F480714C
:1008D0001143018270470A460021018A21F4007108
:1008E0001143018270470A460021018A21F4806188
:1008F0001143018270470A460021018A21F40061F8
:1009000011430182704730B505460C4621882846C0
:10091000FFF7F1FF61882846FFF7E5FFA188284629
:10092000FFF7D9FFE1882846FFF7CDFF30BD002152
:10093000018041808180C1807047818941F40051EC
:1009400081817047818921F400518181704770B5A0
:10095000024600230024002500201046C1F3421364
:1009600001F01F04012606FA04F5012B01D10C3019
:1009700004E0022B01D1103000E0143006682E4351
:10098000066070BD70B502460023002400250020DB
:100990001046C1F3421301F01F04012606FA04F5C4
:1009A000012B01D10C3004E0022B01D1103000E00A
:1009B00014300668AE43066070BD828A0A438282A4
:1009C0007047828A8A4382827047028A22F00F022D
:1009D0000282028A0A4302827047828922F40062FC
:1009E000828182890A4382817047818941F00201B4
:1009F00081817047818921F0020181817047028ADB
:100A000022F020020282028A0A4302827047018A8F
:100A100041F4804101827047018A21F480410182C2
:100A20007047C1F308028280704701468888C0F38E
:100A300008007047818941F0010181817047028B74
:100A4000D2B20283028B42EA012202837047028BF8
:100A500002F47F420283028B0A4302837047818A39
:100A600041F0200181827047818A21F0200181823A
:100A70007047818A41F0100181827047818A21F09C
:100A8000100181827047818A41F00801818270479C
:100A9000818A21F0080181827047828A22F0040253
:100AA0008282828A0A4382827047818A41F00201EF
:100AB00081827047818A21F002018182704702465B
:100AC0001088084008B1012070470020FCE7CA43A5
:100AD0000280704730B502460B46002400210025F5
:100AE000C3F3421503F01F01012000FA01F1012DAB
:100AF00002D19089014006E0022D02D1108A014006
:100B000001E0908A01401C12012000FA04F41088D0
:100B1000044011B10CB1012030BD0020FCE710B53C
:100B2000002200230A1201249440A3B2DC43048073
:100B300010BD00000038014000440040005001405A
:100B400000540140F748006840F00100F549086092
:100B500008464068F4490840F24948600846006881
:100B6000F2490840EF4908600846006820F48020F8
:100B7000086008464068EE490840EA4948604FF47A
:100B80006050C8620846006C40F001000864E94803
:100B900088607047E349096821F48031E14A1160B7
:100BA0001146096821F480211160B0F5803F05D11C
:100BB0001146096841F48031116008E0B0F5802FDA
:100BC00005D1D849096841F4A021D64A116070477F
:100BD0000146002200234A11012A02D0022A06D12E
:100BE00002E0D048036805E0CE48036A02E0CD4841
:100BF000436A00BF00BF01F01F020120904018406F
:100C000008B1012070470020FCE7F0B5002200BFCA
:100C1000002100250024C34E7668C74F06EA07016D
:100C2000C04E766806F4803501F000661EB90226D3
:100C300006EB914104E04FF4F876C6EB9146711C47
:100C400065B9B84E366C06F001061EB1BB4E01FB0D
:100C500006F30FE0BA4E01FB06F30BE0B14E7668E7
:100C600006F400361EB1B54E01FB06F302E0B44EA9
:100C700001FB06F3AB4E766806F00C0222B1042AA3
:100C800005D0082A08D105E0AD4E066007E0AC4E5D
:100C9000066004E0036002E0A94E066000BF00BFEA
:100CA000A04E7668C6F30312A64EB45C0668E64012
:100CB00046609C4E7668C6F30222A24EB45C46683B
:100CC000E6408660974E7668C6F3C2229D4EB45CBD
:100CD0004668E640C660934EF66A06F00F029A4EEA
:100CE000B45C4668B6FBF4F646618E4EF66AC6F30F
:100CF000041202F00F06954F37F81640B3FBF4F6D6
:100D00000661F0BD30B587B00020069000240025B4
:100D10006846FFF77AFF8E490098B1FBF0F04FF478
:100D20000051B1FBF0F400BF3120FFF751FF054641
:100D30000698401C06900698A04201D0002DF3D0E2
:100D40003120FFF745FF10B1012007B030BD002072
:100D5000FBE701207F49C864704700207D49C864D3
:100D60007047014600206F4A106820F0F80040EA02
:100D7000C10010607047012076490860704700206C
:100D800074490860704730B587B000200690002491
:100D900000256846FFF739FF6D490098B1FBF0F078
:100DA0004FF40051B1FBF0F400BF2120FFF710FF1A
:100DB00005460698401C06900698A04201D0002DDA
:100DC000F3D02120FFF704FF10B1012007B030BDA0
:100DD0000020FBE710B50A460023524C6168236CE3
:100DE000534C214023F0010308B1012802D11143E3
:100DF000034302E040EA020421434A4C6160236459
:100E000010BD01205349086670470020514908660B
:100E1000704701460020434A506820F00300084311
:100E2000506070473F48406800F00C007047014632
:100E300000203C4A506820F0F000084350607047A2
:100E400001460020374A506820F4E06008435060B3
:100E5000704701460020334A506820F4605040EA51
:100E6000C100506070472F49896801432D4A916045
:100E700070472C49896881432A4A9160704701462E
:100E80000020284AD06A20F000500843D062704702
:100E900002460020234BD86A20F4806020F478407A
:100EA00010430843D8627047014600201D4AD06AAB
:100EB00020F4F8700843D06270471A48C06A20F4E2
:100EC00080701849C862704701460020154AD06AF0
:100ED00020F00F000843D06270471248803000684D
:100EE00040F001000F49C1F8800070470D48803084
:100EF000006820F001000B49C1F880007047002114
:100F0000154A11696FF30801B0F5007F02DB40F26A
:100F1000FF1001E0C0F3080040F4806211430E4A64
:100F200011617047001002400CC07FF8FFFFF6FE11
:100F3000FFFFC0F700009F0400003C0800093D00CF
:100F400000127A00B22A0008C22A0008D22A000839
:100F50000020A1070000424200700040A849C96972
:100F60000143A74AD161704710B504460B464FF0C4
:100F70008050FFF7F3FFA348006840F48070A14958
:100F800008609F48006A20F005009D490862012C16
:100F900002D0042C11D109E09948006A40F0010008
:100FA000974908621846FFF7AAFF07E09448006ACD
:100FB00040F005009249086200E000BF00BF10BD8C
:100FC000012091490860704700208F4908607047F0
:100FD0008B48006A00F0100008B101207047002023
:100FE000FCE730B587B00020069000240025684655
:100FF000FFF70BFE85490098B1FBF0F04FF400516C
:10100000B1FBF0F400BF4120FFF7E2FD0546069872
:10101000401C06900698A04201D0002DF3D041203C
:10102000FFF7D6FD10B1012007B030BD0020FBE76F
:10103000012075497431086070470020724974318D
:101040000860704730B587B0002006900024002566
:101050006846FFF7DAFD6D490098B1FBF0F04FF4F8
:101060000051B1FBF0F400BF6120FFF7B1FD054670
:101070000698401C06900698A04201D0002DF3D09F
:101080006120FFF7A5FD10B1012007B030BD0020A1
:10109000FBE75B49096A21F44071594A1162114624
:1010A000096A0143116270470120574930310860D5
:1010B00070470020544930310860704700B503463E
:1010C0004FF08050FFF74AFF4E48006840F48070B0
:1010D0004C4908604A48406B20F007004849486383
:1010E0000846406B1843486300BD4548406B40F4D8
:1010F0008060434948630846406B20F48060486341
:1011000070473F48406B40F040003D49486370479E
:101110003B48406B20F040003949486370473849EC
:1011200049690143364A51617047354949698143EC
:10113000334A51617047324989690143304A9161AC
:1011400070472F49896981432D4A916170472C4925
:10115000C96981432A4AD16170472949896A014393
:10116000274A91621146896A8143916270472449F6
:10117000C9680143224AD1601146C9688143D160E0
:1011800070471F49096901431D4A116111460969E8
:1011900081431161704701201B49343108600020F0
:1011A0000860704701460020154A506820F07040E2
:1011B00008435060704701460020114A506820F0F3
:1011C000F0600843506070470D48406A40F08070FE
:1011D0000B4948620846406A20F0807048627047B8
:1011E000014607488068084008B101207047002088
:1011F000FCE7034989680143014A91607047000098
:1012000000100240007000400C0442420020A10780
:1012100001460020FE4A106820F0070008431060D5
:101220007047FB48006800F007007047F848006806
:1012300040F01000F64908607047F548006820F05B
:101240001000F34908607047F148006840F0400022
:10125000EF4908607047EE48006840F08000EC49B4
:1012600008607047EA48006820F08000E84908609C
:101270007047E748006800F0800008B1012070471F
:101280000020FCE7E249096B21EA0011E04A116302
:101290001146096B014311637047DD49096B014336
:1012A000DB4A11637047DA49096B0143D84A11637D
:1012B0001146096B8143116370470146D448006BA6
:1012C000084008B1012070470020FCE7D148D04910
:1012D0004860D14848607047CD48006940F08000C0
:1012E000CB4908617047CB48C9498860CA488860C3
:1012F0007047C748006920F40070C549086170470D
:10130000C348006900F4007008B101207047002054
:10131000FCE70420BE49C96801F0010109B10120C0
:101320000EE0BB49C96801F0040109B1022007E0E1
:10133000B749C96801F0100109B1032000E0042099
:10134000704700B502460423FFF7E3FF034603E0BE
:10135000FFF7DFFF0346521E012B01D1002AF7D110
:1013600002B90723184600BDA949C9680143A84A24
:10137000D160704730B5044604253420FFF7F4FFF0
:101380004FF43020FFF7DDFF0546042D16D1A048AD
:10139000006940F002009E49086108464461006906
:1013A00040F0400008614FF43020FFF7CAFF0546C7
:1013B0009748006920F0020095490861284630BD31
:1013C00010B504243420FFF7CFFF4FF43020FFF78F
:1013D000B8FF0446042C15D18D48006940F0040084
:1013E0008B4908610846006940F0400008614FF4ED
:1013F0003020FFF7A6FF04468548006920F004006E
:1014000083490861204610BD70B504460D46042688
:1014100004F0030008B1062070BD3420FFF7A4FFDC
:101420004FF40050FFF78DFF0646042E10D1784888
:10143000006940F00100764908612560F002FFF77D
:1014400080FF06467248006920F00100704908617B
:101450003046E1E76E48C06900F0004008B1012065
:1014600070470020FCE710B50424FFF7F3FF08B134
:10147000052010BD3420FFF777FF4FF43020FFF731
:1014800060FF0446042C25D1FFF72DFF604800695A
:1014900040F020005E4908610846006940F04000C5
:1014A00008614FF43020FFF74CFF0446042C09D1AB
:1014B0003420FFF759FF5648006920F020005449B6
:1014C000086107E0072C05D05148006920F0200092
:1014D0004F4908612046CCE72DE9F04F05460E46FE
:1014E00017469846DDE90AABDDF824900424FFF79F
:1014F000B1FF10B10520BDE8F08FFFF7F4FE3420F6
:10150000FFF732FF4FF43020FFF71BFF0446042C97
:1015100021D13F48006940F010003D49086146EA8A
:10152000070040EA080040EA090040EA0A0040EAF1
:101530000B000C99084345EA004038490860E00276
:10154000FFF7FFFE0446072C05D03148006920F064
:1015500010002F4908612046CDE770B505460E46BC
:1015600004243420FFF700FFE002FFF7EAFE044600
:10157000FFF770FF08B1052070BD042C18D1FFF7EC
:10158000B2FE2348006940F010002149086145EA95
:1015900006402249091D0860E002FFF7D2FE04461A
:1015A000072C05D01A48006920F01000184908617E
:1015B0002046E1E7F0B504464FF6FF7637460425AE
:1015C000FFF748FF08B10520F0BDE443E6B2C4F3DD
:1015D00007273420FFF7C8FE4FF40050FFF7B1FE95
:1015E0000546042D27D1FFF77EFE0948006940F02B
:1015F000100007490861FF2E01D1FF2F13D046EAE2
:1016000007400649083108604FF4005008E0000028
:101610000020024023016745AB89EFCD00F8FF1F92
:10162000FFF78FFE0546072D05D0CE48006920F054
:101630001000CC4908612846C6E72DE9F04105466F
:101640000F46164698460424FFF704FF10B1052004
:10165000BDE8F081FFF747FE3420FFF785FE4FF429
:101660003020FFF76EFE0446042C19D1BD480069F6
:1016700040F01000BB49086147EA060040EA080054
:1016800045EA0040B8490860E002FFF75AFE044608
:10169000072C05D0B348006920F01000B14908615B
:1016A0002046D5E730B50424AE48C06900F4FE708A
:1016B0008503FFF7CFFE08B1052030BD3420FFF7CA
:1016C00053FE4FF43020FFF73CFE0446042C3CD17F
:1016D000FFF709FEA348006940F02000A149086116
:1016E0000846006940F0400008614FF43020FFF7E1
:1016F00028FE0446042C20D13420FFF735FE9948FB
:10170000006920F02000974908610846006940F010
:101710001000086105F47F0093490C3908604FF40C
:101720003020FFF70EFE0446072C0ED08D480069CE
:1017300020F010008B49086107E0072C05D089488C
:10174000006920F02000874908612046B5E730B5E0
:1017500004248448C06900F4FE708503FFF77AFE14
:1017600008B1052030BD3420FFF7FEFD4FF43020D6
:10177000FFF7E7FD0446042C3CD1FFF7B4FD7948A0
:10178000006940F02000774908610846006940F090
:10179000400008614FF43020FFF7D3FD0446042CCD
:1017A00020D13420FFF7E0FD6E48006920F02000D2
:1017B0006C4908610846006940F01000086145F076
:1017C000A50069490C3908604FF43020FFF7B9FDD6
:1017D0000446072C0ED06348006920F010006149D0
:1017E000086107E0072C05D05E48006920F0200062
:1017F0005C4908612046B5E75A48C06900F002001C
:1018000008B1012070470020FCE730B5042455489A
:10181000C06900F4FE708503FFF7EEFF08B945F0DC
:10182000A505FFF717FE08B1052030BD3420FFF7EE
:101830009BFD4FF43020FFF784FD0446042C47D174
:10184000FFF751FD4748006940F020004549086115
:101850000846006940F0400008614FF43020FFF76F
:1018600070FD0446042C2BD13420FFF77DFD3D484C
:10187000006920F020003B4908610846006940F0FB
:101880001000086138480C3805604FF43020FFF72D
:1018900058FD0446042C0AD13420FFF765FD334877
:1018A000314908604FF43020FFF74BFD0446072C08
:1018B0000ED02C48006920F010002A49086107E08A
:1018C000072C05D02748006920F020002549086131
:1018D0002046AAE701462348C06901EA900008B102
:1018E000012070470020FCE701461E48806908403F
:1018F00008B1012070470020FCE71A48C069C0F316
:10190000872070471748C069C0F387407047154863
:10191000006A70471348006800F0200008B10120F9
:1019200070470020FCE70F49096901430D4A116126
:1019300070470C49096981430A4A116170470146A1
:101940000848C068084008B1012070470020FCE743
:1019500001460448C069084008B1012070470020D2
:10196000FCE70000002002400CF8FF1FCC33FFFF13
:1019700010B50446FE48844203D18020FFF7EDFBFA
:1019800015E0FC48844203D18015FFF7E6FB0EE02A
:10199000F948844203D14015FFF7DFFB07E0F74821
:1019A000844203D10015FFF7D8FB00E010BD00BF53
:1019B000FCE730B501460020002275E0012383409A
:1019C00003EA0102002A6ED00C2808D9E84B1B68F4
:1019D00045000224AC402343E54C236007E0E44B80
:1019E0001B6845000324AC402343E14C236000F016
:1019F00008035BB1DE4B24331B684407E50E0F245C
:101A0000AC40A343DA4C243423600AE0D84B2033A3
:101A10001B684407E50E0F24AC40A343D44C20348C
:101A20002360D34B1B1D1B6801248440A343D04C6F
:101A3000241D23600F2801D00D280AD1CC4B0C3374
:101A40001B6845000124AC402343C94C0C3423607F
:101A500016E00E280AD1C64B0C331B684500022441
:101A6000AC402343C24C0C34236009E0C04B0C3320
:101A70001B6845000324AC40A343BD4C0C342360D9
:101A8000BB4B08331B68012484402343B84C083403
:101A90002360B74B2C331B6845000424AC40234320
:101AA000B34C2C342360401C41FA00F3002B85D149
:101AB00030BD30B501460020002268E0012383409C
:101AC00003EA0102002A61D0032801D0042808D1CA
:101AD000A84B1B6845000224AC402343A54C23605F
:101AE00007E0A44B1B6845000324AC402343A14CF2
:101AF000236000F008035BB19E4B24331B6844074E
:101B0000E50E0F24AC40A3439A4C243423600AE032
:101B1000984B20331B684407E50E0F24AC40A343C9
:101B2000944C20342360934B1B1D1C68012383407D
:101B30009C43904B1B1D1C6004280AD18D4B0C3319
:101B40001B6845000124AC4023438A4C0C342360BD
:101B500009E0884B0C331B6845000324AC40A343C9
:101B6000844C0C342360834B08331C68012383406E
:101B70001C43804B08331C607E4B2C331B68450094
:101B80000424AC4023437B4C2C342360401C41FA9A
:101B900000F3002B92D130BD30B501460020002269
:101BA0003DE00123834003EA0102BAB3724B1B6894
:101BB00045000324AC4023436F4C23606E4B243319
:101BC0001B684407E50E0F24AC40A3436A4C243441
:101BD0002360694B1B1D1C68012383409C43664B9B
:101BE0001B1D1C60644B0C331B6845000324AC4078
:101BF000A343614C0C342360231F1C6801238340E2
:101C00001C435D4B08331C605B4B2C331B68450049
:101C10000424AC402343584C2C342360401C41FA2C
:101C200000F3002BBDD130BD30B5014600200022AD
:101C300056E00123834003EA0102002A4FD040B955
:101C40004E4B1B6845000024AC4023434B4C2360A3
:101C500007E04A4B1B6845000324AC402343474C34
:101C6000236000F008034BB1444B5B6A4407E50E68
:101C70000F24AC40A343414C636208E03F4B1B6A16
:101C80004407E50E0F24AC40A3433C4C23623B4B7E
:101C90005C68012383409C43384B5C6038B9DB6847
:101CA00045000224AC402343344CE36009E00C2897
:101CB00007D3324BDB6845000324AC40A3432F4CD1
:101CC000E3602E4B9C68012383401C432B4B9C609C
:101CD000DB6A45000424AC402343284CE362401CEB
:101CE00041FA00F3002BA4D130BD70B501460022AB
:101CF0000020002313E00124844004EA01036BB1B7
:101D00008407E50EFF2404FA05F21D4C850854F8FB
:101D1000254094431A4D860845F82640401C41FA58
:101D200000F4002CE7D170BD00B54FF6FF70FFF74F
:101D300040FE4FF6FF70FFF7BCFE4FF6FF70FFF757
:101D40002BFF4FF6FF70FFF76FFF00BD30B5034666
:101D5000002002F00804BCB1586A5407E50E0F24B5
:101D6000AC40A0435407E40E01FA04F4204309E018
:101D70000034024000380240003C02400040024073
:101D80000400014058620BE0186A5407E50E0F2466
:101D9000AC40A0435407E40E01FA04F42043186257
:101DA00030BD70B5034600200024186801F003041C
:101DB00056000325B540A843550004FA05F528430D
:101DC0001860012905D0112903D0022901D0122958
:101DD00008D1586801259540A843C1F300159540E6
:101DE0002843586070BD30B50B460021C1685500CE
:101DF0000324AC40A143540003FA04F42143C1601E
:101E000030BD10B50B460021816801249440A143E8
:101E100003FA02F42143816010BD30B50B46002166
:101E2000C16A55000324AC40A143540003FA04F4F2
:101E30002143C16230BDF0B506460C46002500279F
:101E40001FE00121A940206800EA0107C7B12A4626
:101E500030466169FFF77AFF2A4630466168FFF72E
:101E6000A0FF2A463046A168FFF7BDFF2A4630464C
:101E7000E168FFF7C6FF2A4630462169FFF7CDFF2C
:101E80006D1C2068E8400028DBD1F0BD10B50120B2
:101E9000FFF76DF910BD4FF6FF7101600021C160C1
:101EA00041600F214161002181600161704702465C
:101EB0001069084008B1012070470020FCE7014686
:101EC000086980B2704702465069084008B1012095
:101ED00070470020FCE70146486980B27047816185
:101EE0007047816270470A461304836170478162BC
:101EF00070474161704742694A4042617047002221
:101F000041F48032C261C161C261C269C269704775
:101F1000F0B503461546002200200BB9CA4E08E072
:101F2000012B01D1C94E04E0022B01D1C84E00E0C3
:101F3000C84E344601F0080666B101F00702606A37
:101F400097000F26BE40B043960005FA06F63043D0
:101F500060620BE001F00702206A97000F26BE4086
:101F6000B043960005FA06F630432062F0BD10B586
:101F7000B94A831052F823208307DC0E3F23A34085
:101F80009A43B54B841043F824201A46831052F824
:101F900023208307DB0E01FA03F31A43AE4B8410B0
:101FA00043F8242010BD0A460021AB4B1B1F1B68C1
:101FB000C3F30B010AB1014300E08143A64B1B1F91
:101FC0001960704702460020092A11D1A24B1B1F3D
:101FD000186820F40070112902D140F4007003E069
:101FE00020F0F00040EA01109B4B1B1F186011E02D
:101FF000082A0FD1984B1B1F186820F480701029F5
:1020000002D140F4807002E020F00F000843924BB0
:102010001B1F186070479049091F496981438E4A08
:10202000121F516170478C49091F496901438A4A4F
:10203000121F516170478849091F0862704710B527
:10204000814B984201D100230AE0804B984201D194
:10205000012305E07E4B984201D1022300E00323D7
:102060001A4602F00203ABB9774B984207D17A4B7C
:102070001B1F9B690B43784C241FA3611FE0734B0C
:1020800098421CD1744B1B1F9B690B43724C241F3D
:10209000A36114E06E4B984207D16F4B1B1FDB69A5
:1020A0000B436D4C241FE36109E06A4B984206D153
:1020B000694B1B1FDB690B43674C241FE36110BD99
:1020C00010B5614B984201D100230AE05F4B984262
:1020D00001D1012305E05E4B984201D1022300E0CB
:1020E00003231A4602F00203ABB9574B984207D1BB
:1020F000594B1B1F9B698B43574C241FA3611FE047
:10210000524B98421CD1544B1B1F9B698B43524C22
:10211000241FA36114E04E4B984207D14E4B1B1F66
:10212000DB698B434C4C241FE36109E0494B984227
:1021300006D1494B1B1FDB698B43474C241FE361CE
:1021400010BD10B5404B984201D100230AE03F4B2F
:10215000984201D1012305E03D4B984201D1022371
:1021600000E003231A4602F00203ABB9364B984253
:1021700007D1394B1B1F5B6A0B43374C241F63622B
:102180001FE0324B98421CD1334B1B1F5B6A0B4341
:10219000314C241F636214E02D4B984207D12E4B23
:1021A0001B1F9B6A0B432C4C241FA36209E0294B85
:1021B000984206D1284B1B1F9B6A0B43264C241FB9
:1021C000A36210BD10B5204B984201D100230AE054
:1021D0001E4B984201D1012305E01D4B984201D1CD
:1021E000022300E003231A4602F00203ABB9164BA8
:1021F000984207D1184B1B1F5B6A8B43164C241F58
:1022000063621FE0114B98421CD1134B1B1F5B6A8A
:102210008B43114C241F636214E00D4B984207D18D
:102220000D4B1B1F9B6A8B430B4C241FA36209E0C1
:10223000084B984206D1084B1B1F9B6A8B43064CE8
:10224000241FA36210BD0000003402400038024089
:10225000003C0240004002400400014008B5022258
:1022600019491A4800F04DF900F084FA29E016489F
:1022700000784B2807D1144840784F2803D11448E0
:1022800000F049F91DE013480078C0F34000C0B1E8
:102290001048007820F002000E4908700C48406891
:1022A00000F07F40B0F1006F0BD10BA000680090F0
:1022B00002226946054800F02EF8054800F02BF987
:1022C00000BFD4E700BFFEE704000020FEFF0008C7
:1022D00000500008280000204B4F0000704700BF4E
:1022E000FEE77047704770472DE9F04105460E46FE
:1022F000174600240BE029593019FFF785F83059AB
:102300002959884202D00220BDE8F081241DBC4238
:10231000F1D30420F8E72DE9FE4F81468A461646A0
:1023200000200090FEF7D2FFC9F30A00029009EBEB
:102330000600C0F30A000190029800284CD14D46D7
:10234000F70A002419E02846FFF714F8042804D0FF
:10235000FEF7C2FF0320BDE8FE8F0AEBC4204FF456
:1023600000622946FFF7C0FF042803D0FEF7B4FF40
:102370000320F0E705F50065641CBC42E3D3019837
:10238000002871D0002403E0285D6E490855641CC4
:10239000B4F5006FF8D3C6F30A0B002405E00AEB8E
:1023A000C720005D67490855641C5C45F7D3284683
:1023B000FEF7E0FF042803D0FEF78EFF0320CAE7F4
:1023C0004FF4006229465F48FFF78EFF0428D8D0FB
:1023D000FEF782FF0320BEE74FEAD920C502C9F30A
:1023E0000A0BCBF50068B04503D9B0460020009039
:1023F00001E001200090002403E0285D51490855C8
:10240000641CB4F5006FF8D3002406E01AF8040049
:102410000BEB04014B4A5054641C4445F6D3284648
:10242000FEF7A8FF042803D0FEF756FF032092E72B
:102430004FF4006229464348FFF756FF042803D0B3
:10244000FEF74AFF032086E7A6EB0800C70A05F55A
:10245000006500241BE02846FEF78CFF042804D00A
:10246000FEF73AFF032076E746E00AEB080101EBAE
:10247000C4204FF400622946FFF736FF042803D03A
:10248000FEF72AFF032066E705F50065641CBC42E1
:10249000E1D3019880B3009801282ED1002403E0F5
:1024A000285D28490855641CB4F5006FF8D3A6EBE5
:1024B0000800C0F30A0B002407E00AEB080000EB59
:1024C000C720005D1F490855641C5C45F5D32846AC
:1024D000FEF750FF042803D0FEF7FEFE03203AE784
:1024E0004FF4006229461748FFF7FEFE042804D087
:1024F000FEF7F2FE03202EE7FFE7FEF7EDFE0420D5
:1025000029E710B50346002002E01C5C0C54401C77
:102510009042FAD310BD10B5044620680A4908401D
:10252000B0F1005F0DD16068084908600846006896
:1025300007490860206880F30888084600688047DB
:1025400000BF10BD2C0000200000FE2F0C0000205A
:102550000800002000B587B08020FEF7E0FD0120D4
:10256000FEF7E9FD01A8FFF796FC4FF4007001901B
:1025700002200290012003900520069001A98048C6
:10258000FFF759FC4FF48060019001200390052073
:10259000069001A97A48FFF74EFC07B000BD00B5D0
:1025A00091B00120FEF7BBFD4FF48040FEF7C3FD64
:1025B0004FF4E060FDF74CFF24208DF8140001205B
:1025C0008DF815008DF816008DF8170005A8FDF799
:1025D00044FF6C48FDF7A8FF6B4806906B480790D6
:1025E000102008906420099000200A9080200B9011
:1025F00000200C900D900E904FF440500F90002052
:10260000109006A95F48FEF745F801215D48FEF7E6
:10261000AAF85C481430FDF787FF5B4806905C48D9
:102620000790002008900E904FF4A050099006A942
:1026300054481430FEF72EF8022152481430FEF7A9
:1026400092F84FF4165001900020ADF80800ADF854
:102650000A00ADF80C00ADF810000C20ADF80E002B
:1026600001A94948001FFEF706F980214648001FCE
:10267000FEF7A3F940214448001FFEF79EF94148A8
:102680001430FEF744F840F225513F48001FFEF792
:102690005EF940F224413C48001FFEF758F93A48E1
:1026A000001FFEF74AF9022136480838FEF74FF8B6
:1026B000202134480838FEF74AF80221314808380A
:1026C000FEF74FF820212F480838FEF74AF811B0DE
:1026D00000BD10B504462B48FEF71EF821462948D8
:1026E000FEF727F8022127480838FEF730F825487A
:1026F000FEF70DF800BF80212348001FFEF7DFF929
:102700000028F8D010BD10B51E481430FEF704F8AC
:102710001C481430FEF70FF8C0F5A0501D49088082
:10272000084601881A4800F008F94FF4A0511548EE
:102730001430FDF7FEFF022112480838FEF711F8A9
:1027400010481430FDF7E3FF10210F48001FFEF77B
:10275000BEF910BD10B540F224410B48001FFEF732
:10276000B9F930B1FFF7CFFF0748001F00880648CE
:10277000008810BD10B5FFF7EDFEFFF710FF10BD8C
:102780000034024008000240043801402C1C0020A4
:102790002C0800201000002070B502460C46FF25D2
:1027A000FF2309E012F8010B80EA03019C48405C1A
:1027B00080EA05039B48455C201EA4F10106B4B2E3
:1027C000F0D145EA032070BD2DE9F04104460D46E5
:1027D000022D18D20A20944908700B20487000205E
:1027E000A070B020C870A02008710520FFF771FF0D
:1027F0008E48007B401C8D4908730846407B401C76
:102800004873BDE8F08100270026002D3DD08748A1
:10281000456000254068401E215C84484068801E59
:10282000205C41EA00208249C88080488088801E60
:1028300081B22046FFF7B0FF07467D48C088B84206
:1028400017D00A20784908700B2048700020A0702B
:10285000B020C870A02008710520FFF73AFF734828
:10286000007B401C714908730846407B401C48733C
:102870000BE07048007820F00100401C6D490870A2
:102880006B48008A401C6A4908826A48007800F058
:10289000010000284FD06748007820F0010065490A
:1028A0000870624840686249097A461A5F48806841
:1028B00030445E4988605E493246C8682146FFF769
:1028C0002AFD5B48C06830445949C8600846008A00
:1028D0008988884211D00A20534908700B2048701B
:1028E00001208870B020C870A02008710520FFF773
:1028F000F0FE00204D4948731DE00A204A49087047
:102900000B20487010208870B020C870A02008717B
:102910000520FFF7DEFE4748007820F00200801C0B
:10292000444908700846007820F004000870002030
:102930003E490873487300BF63E72DE9F041044640
:102940000D46072D0BD23B480078C0F3800028B11C
:1029500029462046FFF738FFBDE8F081FCE72078E4
:102960000A2852D160780B284FD1281F205CB0284C
:102970004BD1E81E205CA02847D1681E215CA81E10
:10298000205C41EA0026A81E81B22046FFF704FF22
:102990000746B74238D11421254800F056F823489D
:1029A0000021016041608160C160224801702248BD
:1029B0001F49C86002200872A078E8B1112822D10E
:1029C0002079E17840EA0120194988801948007887
:1029D00020F00400001D174908700A2012490870F1
:1029E0000B20487001208870B020C870A0200871AA
:1029F0000520FFF76EFE06E00E48007820F0040088
:102A00000C49087000BF00BF08E00A480078C0F316
:102A1000800018B129462046FFF7D6FE00BF9BE78D
:102A2000F22A0008F22B00082C1C0020901C002029
:102A3000140000202800002000500008D2B201E05D
:102A400000F8012B491EFBD270470022F6E710B5B3
:102A500013460A4604461946FFF7F0FF204610BD0C
:102A6000064C074D06E0E06840F0010394E80700DB
:102A700098471034AC42F6D3FDF750FBF42C000815
:102A8000142D000802E008C8121F08C1002AFAD15C
:102A900070477047002001E001C1121F002AFBD1DE
:102AA0007047000000000000000001020304060758
:102AB00008090000000001020304010203040607E4
:102AC000080901020406080A0C10202020202020FA
:102AD0002020010002000400060008000A000C008B
:102AE00010002000400080000001000100010001F2
:102AF000000100C1814001C0804101C0804100C18E
:102B0000814001C0804100C1814000C1814001C0BD
:102B1000804101C0804100C1814000C1814001C0AD
:102B2000804100C1814001C0804101C0804100C19D
:102B3000814001C0804100C1814000C1814001C08D
:102B4000804100C1814001C0804101C0804100C17D
:102B5000814000C1814001C0804101C0804100C16D
:102B6000814001C0804100C1814000C1814001C05D
:102B7000804101C0804100C1814000C1814001C04D
:102B8000804100C1814001C0804101C0804100C13D
:102B9000814000C1814001C0804101C0804100C12D
:102BA000814001C0804100C1814000C1814001C01D
:102BB000804100C1814001C0804101C0804100C10D
:102BC000814001C0804100C1814000C1814001C0FD
:102BD000804101C0804100C1814000C1814001C0ED
:102BE000804100C1814001C0804101C0804100C1DD
:102BF000814000C0C101C30302C2C60607C705C5A4
:102C0000C404CC0C0DCD0FCFCE0E0ACACB0BC90914
:102C100008C8D81819D91BDBDA1A1EDEDF1FDD1D24
:102C20001CDC14D4D515D71716D6D21213D311D154
:102C3000D010F03031F133F3F23236F6F737F535A4
:102C400034F43CFCFD3DFF3F3EFEFA3A3BFB39F9D4
:102C5000F83828E8E929EB2B2AEAEE2E2FEF2DEDA4
:102C6000EC2CE42425E527E7E62622E2E323E12114
:102C700020E0A06061A163A3A26266A6A767A56524
:102C800064A46CACAD6DAF6F6EAEAA6A6BAB69A994
:102C9000A86878B8B979BB7B7ABABE7E7FBF7DBDA4
:102CA000BC7CB47475B577B7B67672B2B373B171D4
:102CB00070B05090915193535292965657975595A4
:102CC00094549C5C5D9D5F9F9E5E5A9A9B5B995954
:102CD0005898884849894B8B8A4A4E8E8F4F8D4D24
:102CE0004C8C448485458747468682424383418194
:102CF00080400000142D0008000000202C0000007F
:102D0000842A0008402D00082C00002074200000B8
:102D1000942A00080020A107000000000000000025
:102D200000000000000000000000000000000000A3
:102D30000200000000500008000000000000000039
:0400000508000115D9
:00000001FF
